:100000000C9458000C9480000C9480000C94800098
:100010000C9480000C9480000C9480000C94800060
:100020000C9480000C9480000C9480000C94800050
:100030000C9480000C9480000C9480000C94800040
:100040000C94E4020C9480000C9458040C948000EE
:100050000C944D040C9480000C9480000C9480004F
:100060000C942E030C948000000000002500280052
:100070002B00040404040404040402020202020229
:10008000030303030303010204081020408001025C
:1000900004081020010204081020000000080002DB
:1000A00001000003040700000000000000009A099E
:1000B00011241FBECFEFD8E0DEBFCDBF12E0A0E01D
:1000C000B1E0ECE1F8E102C005900D92A831B10772
:1000D000D9F723E0A8E1B2E001C01D92AA33B2072C
:1000E000E1F710E0C8E5D0E004C02197FE010E94CE
:1000F000060CC735D107C9F70E9407050C940C0CF4
:100100000C940000982F2091390381E0213208F0EF
:1001100043C0809109038111FCCF8091380332E004
:1001200030930903909308039FEF90930703109275
:10013000060320930503A8E1B3E0E5EEF2E090E0CA
:10014000291331C01092E4029091E402880F892BA8
:100150008093E4028091E302813049F51092E3023A
:100160008091E4028093BB008091BC0083FDF8CFB6
:1001700085EC8093BC00809109038230E1F380918B
:1001800007038F3FB1F0809107038032A1F0809187
:100190000703803391F084E0109217031092390323
:1001A0001092160308953D9131939F5FC9CF85EE5C
:1001B000E0CF80E0F1CF82E0EFCF83E0EDCF90E0C1
:1001C000FC01E656FF4F2491FC01EA57FF4F3491A2
:1001D000FC01EE58FF4FE491EE23B1F0222339F0F9
:1001E0002330E9F090F4213001F1223011F1F0E0F8
:1001F000EE0FFF1FE859FF4FA591B4918FB7F89408
:10020000EC913E2B3C938FBF08952730A9F0283006
:10021000C9F0243061F7809180008F7D03C0809108
:1002200080008F7780938000E2CF84B58F7784BD84
:10023000DECF84B58F7DFBCF8091B0008F77809328
:10024000B000D5CF8091B0008F7DF9CF8091C102F1
:100250009091C202891B990B0895089508953FB7A4
:10026000F89480915C0290915D02A0915E02B09141
:100270005F0226B5A89B05C02F3F19F00196A11D6E
:10028000B11D3FBFBA2FA92F982F8827BC01CD01E0
:10029000620F711D811D911D42E0660F771F881F3F
:1002A000991F4A95D1F708958F929F92AF92BF926E
:1002B000CF92DF92EF92FF924B015C010E942F01DF
:1002C0006B017C010E942F016C197D098E099F0929
:1002D000683E734081059105A8F321E0821A9108D8
:1002E000A108B10888EEC80E83E0D81EE11CF11CFD
:1002F00081149104A104B10429F7FF90EF90DF90DD
:10030000CF90BF90AF909F908F90089585ED809390
:10031000BC008091BC0084FDFCCF109209030895BD
:1003200020913802260F3327331F21323105ECF498
:1003300020910903FC0190E080E0243069F082E024
:100340000895A09138022191AC01485E5D4FA40F41
:10035000B52FB11D2C930196861798F38091380222
:10036000680F6093380280E0089581E00895089551
:10037000E091C2028091C102E81730F4F0E0ED5341
:10038000FD4F808190E008958FEF9FEF0895909149
:10039000C2028091C1022FEF3FEF981748F4E92F76
:1003A000F0E0ED53FD4F208130E09F5F9093C2025B
:1003B000C9010895CF92DF92EF92FF920F931F939E
:1003C000CF93DF937C01CB018A0120911603222376
:1003D00089F0EB016B01C40ED51ECC15DD0569F06B
:1003E0006991D701ED91FC910190F081E02DC70159
:1003F0000995F3CF642F0E949001C801DF91CF913E
:100400001F910F91FF90EF90DF90CF900895CF93C1
:10041000DF931F92CDB7DEB76983209116032223A5
:10042000F9F020913903203258F021E030E0FC014E
:100430003383228390E080E00F90DF91CF91089585
:1004400080911703E82FF0E0E85EFC4F99819083DC
:100450008F5F809317038093390381E090E0ECCFA6
:1004600061E0CE0101960E949001F7CFCF93DF9318
:10047000EC0181E08093160387E7809338031092A4
:1004800017031092390368818AE093E00E94070203
:1004900069818AE093E00E94070281E0DF91CF91B9
:1004A0000C94820090E080E00895909109039111EE
:1004B000FCCF282F91E090930903909308033FEF1E
:1004C0003093070310920603380F3093050390937F
:1004D000E4029091E4029E6E9093E4029091E30214
:1004E000913019F51092E3029091E4029093BB00D1
:1004F0009091BC0093FDF8CF95EC9093BC00909147
:1005000009039130E1F390910603981710F42091BC
:100510000603A5EEB2E0E3ECF2E080E0821307C050
:100520001092C2028093C102089595EEE6CF9D918C
:1005300091938F5FF3CFCF93DF93D62F91E090937A
:10054000160397E79093380310921703109239031C
:10055000682F8AE093E00E94070281E00E948200F7
:1005600081112EC082E090E00E9455028091C1026C
:100570009091C202891B990B82309105E9F78AE0BC
:1005800093E00E94C701C82F8AE093E00E94C70150
:10059000BC017727DD2361F040E0642B7C2B072E24
:1005A000000C880B990B0E94C20ADF91CF9108952D
:1005B00020E0622B7C2B90E080E00E94C00AF5CF07
:1005C00060E070E0CB01F1CF1F920F920FB60F9257
:1005D00011242F933F938F939F93AF93BF93809159
:1005E000760290917702A0917802B09179023091D1
:1005F0005B0223E0230F2D3758F50196A11DB11D95
:1006000020935B028093760290937702A093780206
:10061000B093790280915C0290915D02A0915E029C
:10062000B0915F020196A11DB11D80935C02909371
:100630005D02A0935E02B0935F02BF91AF919F9164
:100640008F913F912F910F900FBE0F901F90189593
:1006500026E8230F0296A11DB11DD2CF1F920F9243
:100660000FB60F9211242F933F934F935F936F9385
:100670007F938F939F93AF93BF93EF93FF9380915B
:10068000B900887F803609F44AC0F0F5883209F451
:10069000A7C018F5803109F49BC0B8F4882309F489
:1006A000F9C0883009F494C0FF91EF91BF91AF91E8
:1006B0009F918F917F916F915F914F913F912F917A
:1006C0000F900FBE0F901F901895883109F488C0C5
:1006D000803251F78093070314C0803409F49DC021
:1006E00040F48033B9F38833F9F68093070385EC3F
:1006F000B0C0803509F485C0883509F496C08834C7
:1007000099F60E948601D0CF883909F48CC038F55B
:10071000883729F050F4883611F0803729F683E0C5
:100720008093090310925A0257C0883809F47BC09D
:10073000803919F0803809F0B7CF80915A028032A1
:1007400008F071C0E0915A0281E08E0F80935A0246
:100750008091BB00F0E0E65CFD4F80833DC0803BB4
:1007600039F0E0F4803A09F479C0883A09F09CCF76
:1007700084E0809309031092390210923802E091CC
:100780006202F091630209958091380281110FC0D5
:1007900081E0809338021092180209C0803C09F46D
:1007A000A6CF883C09F4A3CF883B09F07DCFE09128
:1007B000390281E08E0F80933902F0E0E85EFD4F50
:1007C00080818093BB00909139028091380229C0CA
:1007D0008091E4028093BB0085EC8093BC0064CFE1
:1007E0009091060380910503981758F5E091060350
:1007F00081E08E0F80930603F0E0EB51FD4F808186
:10080000E9CFE091060381E08E0F8093060380918B
:10081000BB00F0E0EB51FD4F808390910603809187
:1008200005039817C8F285E8D8CFE091060381E068
:100830008E0F809306038091BB00F0E0EB51FD4FDB
:1008400080838091080381115CCF81E08093E30273
:1008500084EA8093BC001092090326CF85EC809334
:10086000BC001092090380915A02803230F4E0916A
:100870005A02F0E0E65CFD4F108260915A0270E08F
:10088000E0916002F09161028AE392E00995109292
:100890005A020ACF1092070334CF1F920F920FB65D
:1008A0000F9211245A980F900FBE0F901F90189519
:1008B0001F920F920FB60F921124CF92DF92EF92F8
:1008C000FF922F933F934F935F936F937F938F93F9
:1008D0009F93AF93BF93CF93DF93EF93FF93909149
:1008E000C1008091C60091FF80C0873309F05CC0D1
:1008F0008091C0008E7F8093C00020E030E040E215
:1009000051E46091AE027091AF028091B00290917B
:10091000B1020E94530B6B017C0120E030E0A90181
:100920000E944E0B20E030E040E05FE387FD53C0C3
:10093000C701B6010E94AC090E948A0AD62FC72FB0
:1009400020E030E048EC52E46091B2027091B302D2
:100950008091B4029091B5020E94530B6B017C010F
:1009600020E030E0A9010E944E0B20E030E040E0A2
:100970005FE387FD35C0C701B6010E94AC090E9444
:100980008A0AD093BA02C093BB021092BC02809331
:10099000BD027093BE026093BF0281E08093C002EB
:1009A0001092010110920001FF91EF91DF91CF9120
:1009B000BF91AF919F918F917F916F915F914F9177
:1009C0003F912F91FF90EF90DF90CF900F900FBE4F
:1009D0000F901F901895C701B6010E94AB09ACCFCC
:1009E000C701B6010E94AB09CACF8F3F69F480915D
:1009F0000001909101010197909301018093000102
:100A000081E08093C002D0CF883C71F6F9CFCF93BC
:100A1000DF93CDB7DEB76F970FB6F894DEBF0FBE8A
:100A2000CDBF789484B5826084BD84B5816084BD77
:100A300085B5826085BD85B5816085BD80916E007C
:100A4000816080936E0010928100809181008260AD
:100A500080938100809181008160809381008091EA
:100A600080008160809380008091B10084608093D9
:100A7000B1008091B00081608093B00080917A00D5
:100A8000846080937A0080917A00826080937A00FB
:100A900080917A00816080937A0080917A008068EA
:100AA00080937A001092C100F8941092C5008FE5EF
:100AB0008093C4008CED8093C10086E08093C200D7
:100AC00081E08093C000529A5A989FE49093BA02B2
:100AD0009CE69093BB0295E69093BC0298E69093B7
:100AE000BD0290E29093BE0290E59093BF0278948D
:100AF0001092C2021092C102109217031092390391
:100B000010920903809308031092E30282E10E948D
:100B1000DF0083E10E94DF008091B9008E7F809327
:100B2000B9008091B9008D7F8093B90088E48093EB
:100B3000B80085E48093BC008DE291E0909363025D
:100B4000809362028EE291E0909361028093600252
:100B500061E08AEA0E949B020E948A0A6C837D837C
:100B60008E839F832C813D81309375022093740284
:100B700061E08CEA0E949B020E948A0A688779875A
:100B80008A879B87888599859093730280937202E8
:100B900061E08EEA0E949B020E948A0A6C877D8730
:100BA0008E879F872C853D8530937102209370023C
:100BB00060E080EB0E949B020E94910A4B017093BF
:100BC0006F0260936E0260E082EB0E949B020E94C3
:100BD000910A688B798B8A8B9B8B888999899093F2
:100BE0006D0280936C0260E084EB0E949B020E9485
:100BF000910A6C8B7D8B8E8B9F8B2C893D893093DA
:100C00006B0220936A0261E086EB0E949B020E94C5
:100C10008A0A688F798F8A8F9B8F888D998D9093A0
:100C200069028093680261E088EB0E949B020E9447
:100C30008A0A6C8F7D8F8E8F9F8F2C8D3D8D309388
:100C400067022093660261E08AEB0E949B0261E0EA
:100C50008CEB0E949B020E948A0A6B0170936502D2
:100C60006093640261E08EEB0E949B022B013C01C9
:100C7000B40190E080E00E94C00A2FE632E143E038
:100C800053E30E94530B4B015C0128893989B90158
:100C900090E080E00E94C00A2DEC3CEC4CE454E370
:100CA0000E94530B6093A6027093A7028093A80240
:100CB0009093A9022C893D89B90190E080E00E94BF
:100CC000C00A6093AA027093AB028093AC02909327
:100CD000AD02B601DD0C880B990B0E94C20A2AE016
:100CE00037ED43EA5DE30E94530B6093A2027093D9
:100CF000A3028093A4029093A502C301B2010E94B3
:100D00008A0A072E000C880B990B0E94C20A20E069
:100D100030E040E253E40E94180A60939E02709310
:100D20009F028093A0029093A1022C813D81B90182
:100D3000330F880B990B0E94C20A60939202709342
:100D40009302809394029093950228853985B90186
:100D5000330F880B990B0E94C20A20E030E040EA72
:100D60005CE30E94530B609396027093970280930A
:100D70009802909399022C8D3D8DB901330F880B09
:100D8000990B0E94C20A20E030E048E45AE30E9436
:100D9000530B60939A0270939B0280939C029093F2
:100DA0009D0220E030E040E057E4C501B4010E941C
:100DB000530B60938602709387028093880290930E
:100DC00089022C853D85B901330F880B990B0E9450
:100DD000C20A20E030E040EA5BE30E94530BA50129
:100DE00094010E94530B60938A0270938B0280934C
:100DF0008C0290938D02288D398DB901330F880BA9
:100E0000990B0E94C20A20E030E048EC57E30E94B0
:100E1000530BA50194010E94530B60938E027093B3
:100E20008F0280939002909391028CEE91E5A7E15E
:100E3000B0E480937A0290937B02A0937C02B093FB
:100E40007D0280E394E3AEE7BFE380937E0290935C
:100E50007F02A0938002B093810280E097E5A4E92D
:100E6000B6E38093820290938302A0938402B093AE
:100E7000850264EF362E01E017E754E3252E8091BA
:100E8000C002882309F465C080910001909101019E
:100E900097FD5FC05A9A80910001909101010297DD
:100EA0000CF01FC24A9BFECF90E080E02091C00072
:100EB00025FFFCCF2091C1002E7F2093C1002091FF
:100EC000000130910101F901EE0FFF1FE20FF31F46
:100ED000E654FD4FE80FF91F20812093C6000196CC
:100EE0008330910519F78091C00085FFFCCF809178
:100EF000000190910101FC01EE0FFF1FE80FF91FA7
:100F0000E654FD4FA081B0E0AC5EBE4FAC91818154
:100F1000A827B0E0AC5EBE4FE2818C91E827F0E0FC
:100F2000EC5EFE4F80818093C6008091B802909164
:100F3000B90201969093B9028093B80280910001A2
:100F4000909101010196909301018093000110920C
:100F5000C0022FB7F8946091760270917702809169
:100F60007802909179022FBF28EE33E040E050E004
:100F70000E94E40B672B682B692B09F0AAC1398208
:100F80003EE23A83CE0101960E94360265E070E0AF
:100F900080E090E00E945401009316031093380300
:100FA000109217031092390366EF8AE093E00E94D3
:100FB000070281E00E94820081118BC182E090E0F3
:100FC0000E9455028091C1029091C202891B990B27
:100FD00082309105E9F78AE093E00E94C701898396
:100FE0008AE093E00E94C7017C01698170E090E093
:100FF00080E00E94C20A20E030E040E853E40E9412
:10100000530B4B015C01B7017727072E000C880BAF
:10101000990B0E94C20A9B01AC01C501B4010E9458
:10102000AC092091AA023091AB024091AC025091E0
:10103000AD020E94AB092091A6023091A702409117
:10104000A8025091A9020E94530B6B017C012091D0
:101050009E0230919F024091A0025091A1020E94F5
:10106000AC099B01AC016091A2027091A302809136
:10107000A4029091A5020E94180AA70196010E945D
:10108000AC096093AE027093AF028093B00290936C
:10109000B10239822A82CE0101960E9436026AE1AB
:1010A00070E080E090E00E945401009316031093DA
:1010B0003803109217031092390366EF8AE093E029
:1010C0000E94070281E00E948200811102C183E038
:1010D00090E00E9455028091C1029091C202891B4A
:1010E000990B83309105E9F78AE093E00E94C701EC
:1010F00089838AE093E00E94C7018A838AE093E0B3
:101100000E94C7015C0120E030E048EC51E46091AE
:10111000AE027091AF028091B0029091B1020E9434
:10112000AB096B017C01AC019B010E94530B6C83EA
:101130007D838E839F83698170E090E080E00E94D0
:10114000C20A20E030E040E853E40E94530B2B0138
:101150003C016A8170E090E080E00E94C20A9B013D
:10116000AC01C301B2010E94AC092B013C01B501E5
:101170007727072E000C880B990B0E94C20A20E0EB
:1011800030E040E85BE30E94530B9B01AC01C301DC
:10119000B2010E94AC094B015C0120919A0230918E
:1011A0009B0240919C0250919D026C817D818E81B9
:1011B0009F810E94530B2B013C012091960230919C
:1011C00097024091980250919902C701B6010E947E
:1011D000530B9B01AC01C301B2010E94AC092091E9
:1011E00092023091930240919402509195020E9494
:1011F000AC099B01AC01C501B4010E94AB094B01D4
:101200005C0120918E0230918F02409190025091AA
:1012100091026C817D818E819F810E94530B2B01F5
:101220003C0120918A0230918B0240918C025091B6
:101230008D02C701B6010E94530B9B01AC01C30193
:10124000B2010E94AC092091860230918702409140
:101250008802509189020E94AC099B01AC01C50132
:10126000B4010E94180A6B017C01AC019B010E9431
:10127000530B20918202309183024091840250915D
:1012800085020E94530B4B015C0120917E0230913C
:101290007F024091800250918102C701B6010E94F5
:1012A000530B9B01AC01C501B4010E94AC09209114
:1012B0007A0230917B0240917C0250917D020E9423
:1012C000AC096093B2027093B3028093B40290931E
:1012D000B50280E090E0892B09F4D1CD0E94000096
:1012E000CACD8FEF9FEF9093010180930001809111
:1012F000B6029091B70201969093B7028093B6021E
:10130000E4E1F2E08091C00085FFFCCF8091C10054
:101310008E7F8093C10081918093C60092E0E73177
:10132000F90781F78091C00085FFFCCF25E120936C
:10133000C6000DCEEAE0F3E01382128288EE93E05D
:10134000A0E0B0E084839583A683B78386E091E034
:101350009183808308955058BB27AA270E94C30910
:101360000C94140B0E94060B38F00E940D0B20F019
:1013700039F49F3F19F426F40C94030B0EF4E09516
:10138000E7FB0C94FD0AE92F0E94250B58F3BA17CE
:10139000620773078407950720F079F4A6F50C948B
:1013A000470B0EF4E0950B2EBA2FA02D0B01B901BF
:1013B00090010C01CA01A0011124FF27591B99F0CB
:1013C000593F50F4503E68F11A16F040A22F232FD7
:1013D000342F4427585FF3CF469537952795A79527
:1013E000F0405395C9F77EF41F16BA0B620B730BCE
:1013F000840BBAF09150A1F0FF0FBB1F661F771F3F
:10140000881FC2F70EC0BA0F621F731F841F48F4F3
:10141000879577956795B795F7959E3F08F0B0CF7C
:101420009395880F08F09927EE0F97958795089563
:101430000E942C0A0C94140B0E940D0B58F00E9471
:10144000060B40F029F45F3F29F00C94FD0A51117E
:101450000C94480B0C94030B0E94250B68F3992302
:10146000B1F3552391F3951B550BBB27AA276217A0
:101470007307840738F09F5F5F4F220F331F441FAD
:10148000AA1FA9F335D00E2E3AF0E0E832D09150E1
:101490005040E695001CCAF72BD0FE2F29D0660FCE
:1014A000771F881FBB1F261737074807AB07B0E811
:1014B00009F0BB0B802DBF01FF2793585F4F3AF017
:1014C0009E3F510578F00C94FD0A0C94480B5F3F49
:1014D000E4F3983ED4F3869577956795B795F7959D
:1014E0009F5FC9F7880F911D9695879597F9089585
:1014F000E1E0660F771F881FBB1F62177307840721
:10150000BA0720F0621B730B840BBA0BEE1F88F72F
:10151000E09508950E94910A6894B1110C94480BCB
:1015200008950E942D0B88F09F5798F0B92F9927A6
:10153000B751B0F0E1F0660F771F881F991F1AF0BE
:10154000BA95C9F714C0B13091F00E94470BB1E0D1
:1015500008950C94470B672F782F8827B85F39F0D0
:10156000B93FCCF3869577956795B395D9F73EF457
:1015700090958095709561957F4F8F4F9F4F0895FF
:10158000E89409C097FB3EF490958095709561951D
:101590007F4F8F4F9F4F9923A9F0F92F96E9BB27D3
:1015A0009395F695879577956795B795F111F8CF4F
:1015B000FAF4BB0F11F460FF1BC06F5F7F4F8F4FBA
:1015C0009F4F16C0882311F096E911C0772321F0B0
:1015D0009EE8872F762F05C0662371F096E8862F48
:1015E00070E060E02AF09A95660F771F881FDAF79F
:1015F000880F9695879597F9089597F99F6780E8E2
:1016000070E060E008959FEF80EC089500240A9454
:101610001616170618060906089500240A941216CD
:101620001306140605060895092E0394000C11F400
:10163000882352F0BB0F40F4BF2B11F460FF04C0AD
:101640006F5F7F4F8F4F9F4F089557FD9058440F06
:10165000551F59F05F3F71F04795880F97FB991F11
:1016600061F09F3F79F087950895121613061406CE
:10167000551FF2CF4695F1DF08C01616170618065B
:10168000991FF1CF86957105610508940895E89436
:10169000BB2766277727CB0197F908950E94C00BD7
:1016A00008F48FEF08950E94660B0C94140B0E94AF
:1016B000060B38F00E940D0B20F0952311F00C94CE
:1016C000FD0A0C94030B11240C94480B0E94250B6B
:1016D00070F3959FC1F3950F50E0551F629FF00185
:1016E000729FBB27F00DB11D639FAA27F00DB11D9E
:1016F000AA1F649F6627B00DA11D661F829F222727
:10170000B00DA11D621F739FB00DA11D621F839FAD
:10171000A00D611D221F749F3327A00D611D231F83
:10172000849F600D211D822F762F6A2F11249F57D1
:1017300050409AF0F1F088234AF0EE0FFF1FBB1FD4
:10174000661F771F881F91505040A9F79E3F510593
:1017500080F00C94FD0A0C94480B5F3FE4F3983E34
:10176000D4F3869577956795B795F795E7959F5F3D
:10177000C1F7FE2B880F911D9695879597F90895CF
:10178000990F0008550FAA0BE0E8FEEF1616170692
:10179000E807F907C0F012161306E407F50798F0FA
:1017A000621B730B840B950B39F40A2661F0232B13
:1017B000242B252B21F408950A2609F4A140A6958F
:1017C0008FEF811D811D0895A1E21A2EAA1BBB1B5C
:1017D000FD010DC0AA1FBB1FEE1FFF1FA217B307FD
:1017E000E407F50720F0A21BB30BE40BF50B661F13
:1017F000771F881F991F1A9469F7609570958095D7
:1018000090959B01AC01BD01CF010895EE0FFF1F24
:0C1810000590F491E02D0994F894FFCFAE
:10181C00FFFF000000000702DA015202B7012601A7
:10182C00C701B801001D3A2774694E53E8F5D2CFB1
:10183C009C81A6BBCDD0F7EAB9A4839E25381F02A4
:10184C00514C6B76879ABDA0F3EEC9D46F72554894
:10185C001B06213C4A57706D3E230419A2BF988584
:10186C00D6CBECF1130E2934677A5D40FBE6C1DC74
:10187C008F92B5A8DEC3E4F9AAB7908D362B0C1164
:10188C00425F78659489AEB3E0FDDAC77C61465B54
:10189C000815322F5944637E2D30170AB1AC8B9644
:1018AC00C5D8FFE2263B1C01524F6875CED3F4E934
:1018BC00BAA7809DEBF6D1CC9F82A5B8031E392424
:1018CC00776A4D50A1BC9B86D5C8EFF24954736E14
:1018DC003D20071A6C71564B1805223F8499BEA304
:1018EC00F0EDCAD735280F12415C7B66DDC0E7FAF4
:1018FC00A9B4938EF8E5C2DF8C91B6AB100D2A37E4
:10190C0064795E43B2AF8895C6DBFCE15A47607DD3
:10191C002E3314097F6245580B16312C978AADB0C3
:08192C00E3FED9C4F0F0F00065
:00000001FF
