:1000000071C000008EC000008CC000008AC00000DB
:1000100088C0000086C0000084C0000082C00000CC
:1000200080C000007EC000007CC000007AC00000DC
:1000300078C0000076C0000074C0000072C00000EC
:1000400070C000006EC000006CC000006AC00000FC
:1000500068C0000066C0000064C00000D1C000009D
:1000600060C000008DC100005CC000005AC00000EC
:1000700058C0000056C0000054C0000052C000002C
:1000800050C000004EC000004CC000004AC000003C
:100090000CC1000046C00000FDC0000042C00000CE
:1000A00040C000003EC000003CC000003AC000005C
:1000B00038C0000036C0000034C0000032C000006C
:1000C00030C000002EC000002CC000002AC000007C
:1000D00028C0000026C0000024C0000022C000008C
:1000E00020C0000011241FBECFEFD1E2DEBFCDBF84
:1000F00000E00CBF13E0A0E0B2E0EEE5F6E000E0C7
:100100000BBF02C007900D92AA30B107D9F723E0C8
:10011000AAE0B3E001C01D92A438B207E1F796D17E
:100120009CC26ECF3FB7F89480911703909118034B
:10013000A0911903B0911A0326B5A89B05C02F3FC3
:1001400019F00196A11DB11D3FBFBA2FA92F982FFD
:100150008827BC01CD01620F711D811D911D42E0F8
:10016000660F771F881F991F4A95D1F70895FC01E4
:100170008091C80085FFFCCF9091C9009160909359
:10018000C90080818093CE000895CF93DF93EC0166
:10019000E881F0E0E050FE4FA0818981A827B0E01F
:1001A000A050BE4FEA818C91E827F0E0E050FE4F6E
:1001B0008081DF91CF910895482F20918203309163
:1001C000830380918003909181038C599F4FE5E6D2
:1001D000F0E0BF011BD28217930779F0D901A55E29
:1001E000BC4F4C93C9010196BF0110D29093830379
:1001F0008093820390E080E008958FEF9FEF089551
:100200001F920F920FB60F9211242F933F938F934B
:100210009F93AF93BF938091130390911403A09188
:100220001503B09116033091120323E0230F2D37ED
:1002300058F50196A11DB11D20931203809313035D
:1002400090931403A0931503B093160380911703A2
:1002500090911803A0911903B0911A030196A11D62
:10026000B11D8093170390931803A0931903B093C3
:100270001A03BF91AF919F918F913F912F910F9052
:100280000FBE0F901F90189526E8230F0296A11D10
:10029000B11DD2CF1F920F920FB60F921124419829
:1002A0000F900FBE0F901F9018951F920F920FB6D0
:1002B0000F9211240BB60F922F933F934F935F939E
:1002C0006F937F938F939F93AF93BF93CF93EF934E
:1002D000FF93C091CE008091100390911103833061
:1002E0009105FCF49C012F5F3F4F30931103209345
:1002F0001003835F9C4FFC01C083FF91EF91CF916E
:10030000BF91AF919F918F917F916F915F914F912D
:100310003F912F910F900BBE0F900FBE0F901F902B
:100320001895419A319BFECF8DE093E02EDF9FEF31
:10033000C81310C080910D03803FE1F03DDF809134
:100340000E033ADF80910F0337DF8DE093E01DDF6E
:1003500033DF98EC8091C80085FFFCCF8091C90005
:100360008E7F8093C9009093CE001092110310925B
:100370001003C3CF1092110310921003419ABDCF06
:100380001F920F920FB60F9211240BB60F922F935C
:100390003F934F935F936F937F938F939F93AF930D
:1003A000BF93CF93EF93FF93C091C600809110034A
:1003B0009091110383309105FCF49C012F5F3F4F16
:1003C0003093110320931003865F9C4FFC01C08380
:1003D000FF91EF91CF91BF91AF919F918F917F91BD
:1003E0006F915F914F913F912F910F900BBE0F90A6
:1003F0000FBE0F901F9018958AE093E0C6DE8C1315
:10040000E7CF109211031092100383E090E028ECE4
:100410003091C00035FFFCCF2093C6000197C1F793
:100420008091C00085FFFCCF86E093E0AEDE809334
:10043000C60080910A03873321F483E093E097DEBE
:10044000C7CF813429F680E093E0F9CF789484B562
:10045000826084BD84B5816084BD85B5826085BDC0
:1004600085B5816085BD80916E00816080936E004E
:100470001092810080918100826080938100809140
:1004800081008160809381008091800081608093F1
:1004900080008091B10084608093B1008091B000B1
:1004A00081608093B0008091910082608093910080
:1004B0008091910081608093910080919000816093
:1004C000809390008091A10082608093A100809130
:1004D000A10081608093A1008091A0008160809341
:1004E000A0008091210182608093210180912101EF
:1004F000816080932101809120018160809320019F
:1005000080917A00846080937A0080917A00826082
:1005100080937A0080917A00816080937A00809144
:100520007A00806880937A001092C100399AFADDCF
:100530004B015C0184EFC82EDD24D394E12CF12C17
:10054000F1DD681979098A099B09683E73408105C4
:100550009105B0F321E0C21AD108E108F10888EE54
:10056000880E83E0981EA11CB11CC114D104E104C3
:10057000F10431F7F8941092CD009FE59093CC00F0
:100580008CED8093C90086E08093CA001092C80069
:100590001092C5009093C40098E99093C100809395
:1005A000C2001092C0007894419A10928103109278
:1005B0008003109283031092820305E610E0C0E0EE
:1005C000D0E080918003909181032091820330914B
:1005D000830328173907A9F02091C00025FFFCCF1D
:1005E000855E9C4FFC0180818093C60080918003D2
:1005F000909181030196B80109D090938103809373
:1006000080032097F1F20E940000DBCF97FB072EBA
:1006100016F4009406D077FD08D00BD007FC05D067
:100620003EF4909581959F4F0895709561957F4F09
:100630000895AA1BBB1B51E107C0AA1FBB1FA61729
:10064000B70710F0A61BB70B881F991F5A95A9F77B
:0E06500080959095BC01CD010895F894FFCFE0
:10065E00001D3A2774694E53E8F5D2CF9C81A6BB94
:10066E00CDD0F7EAB9A4839E25381F02514C6B7684
:10067E00879ABDA0F3EEC9D46F7255481B06213C74
:10068E004A57706D3E230419A2BF9885D6CBECF164
:10069E00130E2934677A5D40FBE6C1DC8F92B5A854
:1006AE00DEC3E4F9AAB7908D362B0C11425F786544
:1006BE009489AEB3E0FDDAC77C61465B0815322F34
:1006CE005944637E2D30170AB1AC8B96C5D8FFE224
:1006DE00263B1C01524F6875CED3F4E9BAA7809D14
:1006EE00EBF6D1CC9F82A5B8031E3924776A4D5004
:1006FE00A1BC9B86D5C8EFF24954736E3D20071AF4
:10070E006C71564B1805223F8499BEA3F0EDCAD7E3
:10071E0035280F12415C7B66DDC0E7FAA9B4938ED3
:10072E00F8E5C2DF8C91B6AB100D2A3764795E43C3
:10073E00B2AF8895C6DBFCE15A47607D2E331409B3
:10074E007F6245580B16312C978AADB0E3FED9C4A3
:0A075E00410957370957C8C8C80001
:00000001FF
