:020000020000FC
:040000000C947800E4
:1000BC0000C0303061F0440F43956EF0660F562F40
:1000CC006894339510932501109324011895299861
:1000DC00562F41E0F6CF3130572FE89491F37695B7
:1000EC00572FEFCF0FEF01B900BB12E014B910E09E
:1000FC0025E012B911BB25B9F89410932501109382
:10010C002401222723E02093210122272AE732E130
:10011C002093290130932801332732E03093730068
:10012C0059E0332705C0F89430E040E8000000C0E7
:10013C0000000000000030E040E011BB12B923E0E9
:10014C00189B03C01A9B0CC0F3CF299A109325015E
:10015C00109324010000789442B9393021F3FCCF7C
:10016C00299A109325011093240161E070E850E066
:0C017C006894789451BB3930B1F2FCCF8C
:00000001FF
