:100000000C9434000C9451000C9451000C94510049
:100010000C9451000C9451000C9451000C9451001C
:100020000C9451000C9451000C9451000C9451000C
:100030000C9451000C9451000C9451000C945100FC
:100040000C9453000C9451000C94A8000C94510093
:100050000C949D000C9451000C9451000C94510090
:100060000C9451000C94510011241FBECFEFD8E026
:10007000DEBFCDBF12E0A0E0B1E0EAEBF3E002C0EA
:1000800005900D92A630B107D9F722E0A6E0B2E0C4
:1000900001C01D92AC31B207E1F70E94DC000C9464
:1000A000DB010C9400001F920F920FB60F921124E7
:1000B0002F933F938F939F93AF93BF938091180299
:1000C00090911902A0911A02B0911B02309117026F
:1000D00023E0230F2D3758F50196A11DB11D209364
:1000E00017028093180290931902A0931A02B093FA
:1000F0001B028091130290911402A0911502B091FD
:1001000016020196A11DB11D809313029093140253
:10011000A0931502B0931602BF91AF919F918F915A
:100120003F912F910F900FBE0F901F90189526E8CA
:10013000230F0296A11DB11DD2CF1F920F920FB6B1
:100140000F9211245A980F900FBE0F901F90189580
:100150001F920F920FB60F9211248F939F9390913D
:10016000C1008091C60091FF15C0813461F4809177
:10017000C0008E7F8093C00081E0809312021092B5
:100180000101109200019F918F910F900FBE0F906F
:100190001F9018958F3F69F48091000190910101A3
:1001A0000197909301018093000181E080931202F6
:1001B000EACF883C41F7F9CF789484B5826084BD5A
:1001C00084B5816084BD85B5826085BD85B581605B
:1001D00085BD80916E00816080936E0010928100D9
:1001E0008091810082608093810080918100816094
:1001F0008093810080918000816080938000809155
:10020000B10084608093B1008091B00081608093E0
:10021000B00080917A00846080937A0080917A00A7
:10022000826080937A0080917A00816080937A0066
:1002300080917A00806880937A001092C100F894CF
:100240001092C5008FE58093C4008CED8093C100AF
:1002500086E08093C20081E08093C000529A5A9851
:1002600092E390930602909307022EE220930802F5
:1002700080E38093090234E330930A0220930B0257
:1002800090930C0280930D0280930E0281E3809381
:100290000F021092100210921102789455E1F52E7F
:1002A000C0E0D0E00FEF1FEF80911202882309F425
:1002B0005FC0809100019091010197FD59C05A9A49
:1002C000809100019091010104970CF057C04A9B66
:1002D000FECF90E080E02091C00025FFFCCF209170
:1002E000C1002E7F2093C1002091000130910101B7
:1002F000F901EE0FFF1FE20FF31FEA5FFD4FE80F5A
:10030000F91F20812093C60001968330910519F7CB
:100310008091C00085FFFCCF809100019091010188
:10032000DC01AA0FBB1FA80FB91FAA5FBD4FEC913C
:10033000F0E0EE5FFE4FE08111968C911197E82777
:10034000F0E0EE5FFE4FE08112968C91E827F0E03E
:10035000EE5FFE4F80818093C600809100019091F6
:100360000101019690930101809300011092120205
:10037000209709F499CF0E94000096CF10930101B5
:1003800000930001E2E0F2E08091C00085FFFCCF25
:100390008091C1008E7F8093C10081918093C600BF
:1003A00082E0E530F80781F78091C00085FFFCCF3F
:0A03B000F092C600DBCFF894FFCFF7
:1003BA00FFFF001D3A2774694E53E8F5D2CF9C819E
:1003CA00A6BBCDD0F7EAB9A4839E25381F02514CAB
:1003DA006B76879ABDA0F3EEC9D46F7255481B0697
:1003EA00213C4A57706D3E230419A2BF9885D6CB8B
:1003FA00ECF1130E2934677A5D40FBE6C1DC8F927B
:10040A00B5A8DEC3E4F9AAB7908D362B0C11425F6A
:10041A0078659489AEB3E0FDDAC77C61465B08155E
:10042A00322F5944637E2D30170AB1AC8B96C5D84A
:10043A00FFE2263B1C01524F6875CED3F4E9BAA7F6
:10044A00809DEBF6D1CC9F82A5B8031E3924776A2A
:10045A004D50A1BC9B86D5C8EFF24954736E3D201E
:10046A00071A6C71564B1805223F8499BEA3F0ED0A
:10047A00CAD735280F12415C7B66DDC0E7FAA9B4FA
:10048A00938EF8E5C2DF8C91B6AB100D2A376479EA
:10049A005E43B2AF8895C6DBFCE15A47607D2E33D6
:1004AA0014097F6245580B16312C978AADB0E3FECA
:0604BA00D9C4F0F0F000CF
:107E000085E08093810082E08093C00088E18093C8
:107E1000C10086E08093C20080E18093C40084B7F3
:107E200014BE81FFD0D089E2C8D0259A86E020E335
:107E30003CEF91E0309385002093840096BBB09B8B
:107E4000FECF1D9AA8958150A9F7DD24D394A5E013
:107E5000EA2EF1E1FF2EA4D0813421F481E0BED0DE
:107E600083E024C0823411F484E103C0853419F422
:107E700085E0B4D08AC08535A1F492D0082F10E0F7
:107E800010930102009300028BD090E0982F882776
:107E9000802B912B880F991F9093010280930002F1
:107EA00073C0863529F484E099D080E071D06DC02C
:107EB000843609F043C07CD0E0910002F0910102C9
:107EC00083E080935700E895C0E0D1E069D08993C2
:107ED000809102028150809302028823B9F778D002
:107EE00007B600FCFDCF4091000250910102A0E0D6
:107EF000B1E02C9130E011968C91119790E0982F81
:107F00008827822B932B1296FA010C01D0925700EE
:107F1000E89511244E5F5F4FF1E0A038BF0749F7A5
:107F2000E0910002F0910102E0925700E89507B657
:107F300000FCFDCFF0925700E89527C08437B9F4D4
:107F400037D046D0E0910002F09101023196F093D3
:107F50000102E09300023197E4918E2F19D08091B5
:107F60000202815080930202882361F70EC0853798
:107F700039F42ED08EE10CD085E90AD08FE096CF6F
:107F8000813511F488E019D023D080E101D063CF8E
:107F9000982F8091C00085FFFCCF9093C600089574
:107FA000A8958091C00087FFFCCF8091C6000895FE
:107FB000F7DFF6DF80930202F3CFE0E6F0E098E12E
:107FC00090838083089580E0F8DFEE27FF270994EF
:107FD000E7DF803209F0F7DF84E1DACF1F93182F53
:0C7FE000DFDF1150E9F7F4DF1F91089576
:0400000300007E007B
:00000001FF