:1000000013C1000023C1000021C100001FC1000076
:100010001DC100001BC1000019C1000017C1000074
:1000200015C1000013C1000011C100000FC1000084
:100030000DC100000BC1000009C1000007C1000094
:1000400005C1000003C1000001C10000FFC00000A5
:10005000FDC00000FBC00000F9C0000053C100005B
:10006000F5C00000F3C00000F1C00000EFC00000C8
:10007000EDC00000EBC00000E9C00000E7C00000D8
:10008000E5C00000E3C00000E1C00000DFC00000E8
:10009000DDC00000DBC00000D9C00000D7C00000F8
:1000A000D5C00000D3C00000D1C00000CFC0000008
:1000B000CDC00000CBC00000C9C00000C7C0000018
:1000C000C5C00000C3C00000C1C00000BFC0000028
:1000D000BDC00000BBC00000B9C00000B7C0000038
:1000E000B5C000009402970286028A028E02CE02F8
:1000F0009B029F02A502A902AD02B302B702BB0296
:10010000CE02C102C502C90200002200250028005B
:100110002B002E003100340002010000050108010F
:100120000B0100002100240027002A002D003000D0
:10013000330001010000040107010A010000200052
:100140002300260029002C002F00320000010000AF
:10015000030106010901050505050705080808084A
:10016000020202020A0A080804040404010101014F
:10017000010101010303030303030303040707074A
:100180000C0C0C0C0C0C0C0C0202020206060606EF
:10019000060606060B0B0B0B0B0B0B0B01021020BC
:1001A00020080810204010204080020102010804AD
:1001B0000201010204081020408080402010080441
:1001C000020180040201804020100804020108049A
:1001D00002010102040810204080010204081020DE
:1001E000408000000A0B02090C0D0E0807030401F1
:1001F00000000000000000000000000000000000FF
:1002000000000000000000000000000000001211CB
:1002100010000000000000000000000000000000CE
:10022000000000000000000011241FBECFEFD1E24B
:10023000DEBFCDBF00E00CBF22E0A0E0B2E001C015
:100240001D92A930B207E1F7A7D0DDC1D9CE3FB7E3
:10025000F8948091050290910602A0910702B09156
:10026000080226B5A89B05C02F3F19F00196A11DD5
:10027000B11D3FBFBA2FA92F982F8827820F911D3C
:10028000A11DB11DBC01CD0142E0660F771F881F83
:10029000991F4A95D1F708958F929F92AF92BF927E
:1002A000CF92DF92EF92FF92D2DF4B015C018CE4A0
:1002B000C82E84E0D82EE12CF12CC9DFDC01CB0163
:1002C00088199909AA09BB09883E9340A105B1057F
:1002D000A0F321E0C21AD108E108F10888EE880EE7
:1002E00083E0981EA11CB11CC114D104E104F104E7
:1002F00021F7FF90EF90DF90CF90BF90AF909F904D
:100300008F9008951F920F920FB60F9211242F9382
:100310003F938F939F93AF93BF93809101029091EE
:100320000202A0910302B09104023091000223E086
:10033000230F2D3720F40196A11DB11D05C026E81D
:10034000230F0296A11DB11D20930002809301028C
:1003500090930202A0930302B093040280910502DD
:1003600090910602A0910702B09108020196A11D8A
:10037000B11D8093050290930602A0930702B093EB
:100380000802BF91AF919F918F913F912F910F9054
:100390000FBE0F901F901895789484B5826084BD2D
:1003A00084B5816084BD85B5826085BD85B5816079
:1003B00085BD80916E00816080936E0010928100F7
:1003C00080918100826080938100809181008160B2
:1003D0008093810080918000816080938000809173
:1003E000B10084608093B1008091B00081608093FF
:1003F000B000809191008260809391008091910083
:100400008160809391008091900081608093900042
:100410008091A10082608093A1008091A100816001
:100420008093A1008091A00081608093A0008091C2
:10043000210182608093210180912101816080935C
:1004400021018091200181608093200180917A00B8
:10045000846080937A0080917A00826080937A0031
:1004600080917A00816080937A0080917A00806820
:1004700080937A001092C1008FEF80BB11BACDEC4F
:10048000D1E0FE01449107E811E0F801849188234E
:10049000C9F090E0880F991FFC01EE5DFE4F259199
:1004A0003491FC01E85FFE4FA591B4915FB7F894D9
:1004B000F9019081842F8095982390838C91842BCF
:1004C0008C935FBF43E1E42E42E0F42EAA24A39470
:1004D00050E8B52E60E0C62E60E0D62EF7014491BC
:1004E000FE012491F8019491992309F462C04423F8
:1004F00009F454C050E0FA013197E231F10508F0F7
:100500004DC08827EE58FF4F8F4F75C080918000F7
:100510008F7707C0809180008F7D03C0809180001D
:10052000877F809380003AC084B58F7702C084B5FE
:100530008F7D84BD33C08091B0008F7703C08091E0
:10054000B0008F7D8093B00029C0809190008F779C
:1005500007C0809190008F7D03C080919000877FBD
:10056000809390001BC08091A0008F7707C080917E
:10057000A0008F7D03C08091A000877F8093A000A2
:100580000DC0809120018F7707C0809120018F7D61
:1005900003C080912001877F80932001E92FF0E044
:1005A000EE0FFF1FE45CFE4FA591B4918C91822366
:1005B000D9F411BA71DEA1BA6FDEB1BA84E0882E27
:1005C000912C7724739490E8692E66DE770C71BACB
:1005D00063DE862D90E095958795682E81BBF1E0CE
:1005E0008F1A910891F711BAC114D10409F476CF8A
:1005F0000E94000073CFEE0FFF1F881F8BBF079074
:0A060000F691E02D1994F894FFCF55
:00000001FF
