:1000000071C000008EC000008CC000008AC00000DB
:1000100088C0000086C0000084C0000082C00000CC
:1000200080C000007EC000007CC000007AC00000DC
:1000300078C0000076C0000074C0000072C00000EC
:1000400070C000006EC000006CC000006AC00000FC
:1000500068C0000066C0000064C00000C1C00000AD
:1000600060C0000007C100005CC000005AC0000072
:1000700058C0000056C0000054C0000052C000002C
:1000800050C000004EC000004CC000004AC000003C
:1000900048C0000046C0000044C0000042C000004C
:1000A00040C000003EC000003CC000003AC000005C
:1000B00038C0000036C0000034C0000032C000006C
:1000C00030C000002EC000002CC000002AC000007C
:1000D00028C0000026C0000024C0000022C000008C
:1000E00020C0000011241FBECFEFD1E2DEBFCDBF84
:1000F00000E00CBF13E0A0E0B2E0E0EEF4E000E0CE
:100100000BBF02C007900D92A630B107D9F723E0CC
:10011000A6E0B3E001C01D92A431B207E1F728D1F7
:10012000DDC16ECF3FB7F894809110039091110319
:10013000A0911203B091130326B5A89B05C02F3FD1
:1001400019F00196A11DB11D3FBFBA2FA92F982FFD
:100150008827BC01CD01620F711D811D911D42E0F8
:10016000660F771F881F991F4A95D1F70895FC01E4
:100170008091C90081608093C90080818093CE0006
:100180008091C80085FFFCCF8091C9008E7F80934D
:10019000C90081818093CE008091C80085FFFCCF8B
:1001A0008091C9008E7F8093C90082818093CE00A8
:1001B0008091C80085FFFCCFA081B0E0A050BE4F69
:1001C000AC918181A827B0E0A050BE4FE2818C9114
:1001D000E827F0E0E050FE4F80818093CE00089544
:1001E0001F920F920FB60F9211242F933F938F936C
:1001F0009F93AF93BF9380910C0390910D03A091B7
:100200000E03B0910F0330910B0323E0230F2D3722
:1002100058F50196A11DB11D20930B0380930C038B
:1002200090930D03A0930E03B0930F0380911003DE
:1002300090911103A0911203B09113030196A11D97
:10024000B11D8093100390931103A0931203B093F8
:100250001303BF91AF919F918F913F912F910F9079
:100260000FBE0F901F90189526E8230F0296A11D30
:10027000B11DD2CF1F920F920FB60F9211240BB661
:100280000F922F933F934F935F936F937F938F932F
:100290009F93AF93BF93EF93FF932091C6008091FC
:1002A000090390910A03833091054CF1E091060314
:1002B000F0E0E050FE4FE08180910703E827F0E096
:1002C000E050FE4FE08180910803E827F0E0E05025
:1002D000FE4F8081281331C010920A031092090347
:1002E00082E08BB98091C90081608093C9008091C0
:1002F00006038733C1F583E093E039DF0BC0AC011F
:100300004F5F5F4F50930A03409309038A5F9C4FEE
:10031000FC012083FF91EF91BF91AF919F918F914D
:100320007F916F915F914F913F912F910F900BBEF5
:100330000F900FBE0F901F9018958091C00085FF01
:10034000FCCF8FEF8093C6008091C00085FFFCCF6B
:100350008FEF8093C6008091C00085FFFCCF8FEFA8
:100360008093C600D7CF8134A9F680E093E0C5CF53
:10037000789484B5826084BD84B5816084BD85B580
:10038000826085BD85B5816085BD80916E0081608C
:1003900080936E0010928100809181008260809332
:1003A0008100809181008160809381008091800034
:1003B0008160809380008091B10084608093B1005F
:1003C0008091B00081608093B00080919100826044
:1003D0008093910080919100816080939100809141
:1003E00090008160809390008091A1008260809352
:1003F000A1008091A10081608093A1008091A00064
:1004000081608093A000809121018260809321010E
:100410008091210181608093210180912001816080
:100420008093200180917A00846080937A0080918B
:100430007A00826080937A0080917A008160809354
:100440007A0080917A00806880937A001092C100CF
:10045000519A68DE4B015C0184EFC82EDD24D394F1
:10046000E12CF12C5FDE681979098A099B09683E45
:10047000734081059105B0F321E0C21AD108E1086B
:10048000F10888EE880E83E0981EA11CB11CC114EF
:10049000D104E104F10431F7F8941092CD009FE506
:1004A0009093CC008CED8093C90086E08093CA00C5
:1004B0001092C8001092C5009093C40098E99093E0
:1004C000C1008093C2001092C0007894599AC0E095
:1004D000D0E02097F1F30E940000FBCFF894FFCF0B
:1004E00000070E091C1B1215383F363124232A2D14
:1004F00070777E796C6B6265484F464154535A5D04
:10050000E0E7EEE9FCFBF2F5D8DFD6D1C4C3CACDF3
:1005100090979E998C8B8285A8AFA6A1B4B3BABDE3
:10052000C7C0C9CEDBDCD5D2FFF8F1F6E3E4EDEAD3
:10053000B7B0B9BEABACA5A28F88818693949D9AC3
:100540002720292E3B3C35321F18111603040D0AB3
:100550005750595E4B4C45426F68616673747D7AA3
:10056000898E878095929B9CB1B6BFB8ADAAA3A493
:10057000F9FEF7F0E5E2EBECC1C6CFC8DDDAD3D483
:10058000696E676075727B7C51565F584D4A434473
:10059000191E171005020B0C21262F283D3A333463
:1005A0004E49404752555C5B7671787F6A6D646353
:1005B0003E39303722252C2B0601080F1A1D141343
:1005C000AEA9A0A7B2B5BCBB9691989F8A8D848333
:1005D000DED9D0D7C2C5CCCBE6E1E8EFFAFDF4F323
:0605E000410957370957DD
:00000001FF
