:10000000E7C0000004C1000002C1000000C1000000
:10001000FEC00000FCC00000FAC00000F8C00000F4
:10002000F6C00000F4C00000F2C00000F0C0000004
:10003000EEC00000ECC00000EAC000005EC200009C
:10004000E6C00000E4C00000E2C00000E0C0000024
:10005000DEC00000DCC00000DAC0000004C2000006
:10006000D6C00000D4C00000D2C00000D0C0000044
:10007000CEC00000CCC00000CAC00000C8C0000054
:10008000C6C00000C4C00000C2C00000C0C0000064
:10009000BEC00000BCC00000BAC00000B8C0000074
:1000A000B6C00000B4C00000B2C00000B0C0000084
:1000B000AEC00000ACC00000AAC00000A8C0000094
:1000C000A6C00000A4C00000A2C00000A0C00000A4
:1000D0009EC000009CC000009AC0000098C00000B4
:1000E00096C0000000002200250028002B002E00F2
:1000F0003100340002010000050108010B01050573
:100100000505070508080808020202020A0A08088D
:1001100004040404010101010101010103030303BB
:1001200003030303040707070C0C0C0C0C0C0C0C4A
:100130000202020206060606060606060B0B0B0B5B
:100140000B0B0B0B01021020200808102040102080
:10015000408002010201080402010102040810208B
:100160004080804020100804020180040201804089
:1001700020100804020108040201010204081020F2
:100180004080010204081020408000000A0B020990
:100190000C0D0E0807030401000000000000000021
:1001A000000000000000000000000000000000004F
:1001B000000000000000121110000000000000000C
:1001C000000000000000000000000000000000002F
:1001D00011241FBECFEFD1E2DEBFCDBF00E00CBFC8
:1001E00012E0A0E0B2E0EEE6F7E000E00BBF02C0F4
:1001F00007900D92AC30B107D9F722E0ACE0B2E045
:1002000001C01D92AD31B207E1F7B8D1AEC2F8CE50
:10021000382FE7EAF1E08491E1E6F1E02491EBE1A7
:10022000F1E09491992309F434C0882309F18150B5
:100230008231F0F4E82FF0E08827EF5DFE4F8F4F1A
:1002400078C25201560133014A014E013801590169
:100250005F01630169016D01710177017B01380163
:100260007F0185018901809180008F7780938000D4
:10027000E92FF0E0EE0FFF1FEC51FF4FA591B49175
:100280008FB7F894EC91311148C020952E232C9310
:100290008FBF0895809180008F7DE8CF809180008E
:1002A000877FE4CF84B58F7784BDE2CF84B58F7D1F
:1002B000FBCF8091B0008F778093B000D9CF809131
:1002C000B0008F7DF9CF809190008F778093900060
:1002D000CFCF809190008F7DF9CF80919000877F64
:1002E000F5CF8091A0008F778093A000C1CF80913F
:1002F000A0008F7DF9CF8091A000877FF5CF8091FE
:1003000020018F7780932001B3CF809120018F7DD2
:10031000F9CF80912001877FF5CF2E2BB8CF3FB743
:10032000F8948091190290911A02A0911B02B09149
:100330001C0226B5A89B05C02F3F19F00196A11DF0
:10034000B11D3FBFBA2FA92F982F8827BC01CD011F
:10035000620F711D811D911D42E0660F771F881F7E
:10036000991F4A95D1F708958F929F92AF92BF92AD
:10037000CF92DF92EF92FF92D2DF6B017C0192E08D
:10038000892E912CA12CB12CCADF6C197D098E0904
:100390009F09683E734081059105B0F328EEC20EB7
:1003A00023E0D21EE11CF11C8A9489288A288B281C
:1003B00029F0812C912C54018394E6CFFF90EF908B
:1003C000DF90CF90BF90AF909F908F900895CF9285
:1003D000DF92EF92FF920F931F93CF93DF9300D0A2
:1003E00000D0CDB7DEB76B837C838D839E83CB80BB
:1003F000DC808D819E812EEF2BB92AE0E22EF12C3C
:10040000B70184D18C016E5F7D4FFB01808185B97E
:10041000ABDF8DEF8BB9F801EE5FFD4F808185B9C1
:10042000A3DF8BEF8BB9C601B70170D18C016E5F72
:100430007D4FFB01808185B997DF87EF8BB9F8018C
:10044000EE5FFD4F808185B926960FB6F894DEBF2A
:100450000FBECDBFDF91CF911F910F91FF90EF9015
:10046000DF90CF9081CF1F920F920FB60F92112481
:100470002F933F938F939F93AF93BF9380911502D8
:1004800090911602A0911702B091180230911402B7
:1004900023E0230F2D3758F50196A11DB11D2093A0
:1004A00014028093150290931602A0931702B09342
:1004B00018028091190290911A02A0911B02B0912A
:1004C0001C020196A11DB11D8093190290931A027E
:1004D000A0931B02B0931C02BF91AF919F918F918B
:1004E0003F912F910F900FBE0F901F90189526E807
:1004F000230F0296A11DB11DD2CF1F920F920FB6EE
:100500000F9211240BB60F922F933F935F936F932B
:100510007F938F939F93AF93BF93EF93FF938091BC
:1005200000029091010220910C0230910D02280FDF
:10053000391F309301022093000290930D028093A3
:100540000C02EEE0F2E01182108264E670E0DED090
:100550009383828375836483FF91EF91BF91AF9101
:100560009F918F917F916F915F913F912F910F900C
:100570000BBE0F900FBE0F901F901895CF93DF9377
:1005800000D000D0CDB7DEB7789484B5826084BD4A
:1005900084B5816084BD85B5826085BD85B5816087
:1005A00085BD80916E00816080936E001092810005
:1005B00080918100826080938100809181008160C0
:1005C0008093810080918000816080938000809181
:1005D000B10084608093B1008091B000816080930D
:1005E000B000809191008260809391008091910091
:1005F0008160809391008091900081608093900051
:100600008091A10082608093A1008091A10081600F
:100610008093A1008091A00081608093A0008091D0
:10062000210182608093210180912101816080936A
:1006300021018091200181608093200180917A00C6
:10064000846080937A0080917A00826080937A003F
:1006500080917A00816080937A0080917A0080682E
:1006600080937A001092C10080E881B98FE082B94E
:100670008FEF84B915B89FE39AB98BB986E0EEE0A5
:10068000F2E0DE01119601900D928A95E1F781E08A
:10069000BFDD00E510E049815A816B817C818D814D
:1006A0009E8195DE01501109B1F780E0B1DDF8942B
:1006B000109270008091B60080628093B600109214
:1006C000B2001092B1008091B10084608093B100BB
:1006D0008091B6008171E1F781E087BB8093700063
:1006E000789400E010E040910E0250910F0260916A
:1006F000100270911102809112029091130267DE34
:100700000115110581F30E940000EDCF97FB072E24
:1007100016F4009406D077FD08D013D007FC05D05E
:100720003EF4909581959F4F0895709561957F4F08
:100730000895EE0FFF1F881F8BBF0790F691E02DE5
:100740001994AA1BBB1B51E107C0AA1FBB1FA61708
:10075000B70710F0A61BB70B881F991F5A95A9F76A
:0E07600080959095BC01CD010895F894FFCFCF
:0C076E0001003F065B4F666D7D077F6F4A
:00000001FF
